{
    "contractName": "Random",
    "abi": [
        {
            "inputs": [
                {
                    "internalType": "uint64",
                    "name": "s_subId",
                    "type": "uint64"
                }
            ],
            "stateMutability": "nonpayable",
            "type": "constructor"
        },
        {
            "inputs": [
                {
                    "internalType": "address",
                    "name": "have",
                    "type": "address"
                },
                {
                    "internalType": "address",
                    "name": "want",
                    "type": "address"
                }
            ],
            "name": "OnlyCoordinatorCanFulfill",
            "type": "error"
        },
        {
            "anonymous": false,
            "inputs": [
                {
                    "indexed": true,
                    "internalType": "address",
                    "name": "owner",
                    "type": "address"
                },
                {
                    "indexed": true,
                    "internalType": "address",
                    "name": "approved",
                    "type": "address"
                },
                {
                    "indexed": true,
                    "internalType": "uint256",
                    "name": "tokenId",
                    "type": "uint256"
                }
            ],
            "name": "Approval",
            "type": "event"
        },
        {
            "anonymous": false,
            "inputs": [
                {
                    "indexed": true,
                    "internalType": "address",
                    "name": "owner",
                    "type": "address"
                },
                {
                    "indexed": true,
                    "internalType": "address",
                    "name": "operator",
                    "type": "address"
                },
                {
                    "indexed": false,
                    "internalType": "bool",
                    "name": "approved",
                    "type": "bool"
                }
            ],
            "name": "ApprovalForAll",
            "type": "event"
        },
        {
            "anonymous": false,
            "inputs": [
                {
                    "indexed": true,
                    "internalType": "address",
                    "name": "from",
                    "type": "address"
                },
                {
                    "indexed": true,
                    "internalType": "address",
                    "name": "to",
                    "type": "address"
                },
                {
                    "indexed": true,
                    "internalType": "uint256",
                    "name": "tokenId",
                    "type": "uint256"
                }
            ],
            "name": "Transfer",
            "type": "event"
        },
        {
            "inputs": [
                {
                    "internalType": "address",
                    "name": "to",
                    "type": "address"
                },
                {
                    "internalType": "uint256",
                    "name": "tokenId",
                    "type": "uint256"
                }
            ],
            "name": "approve",
            "outputs": [],
            "stateMutability": "nonpayable",
            "type": "function"
        },
        {
            "inputs": [
                {
                    "internalType": "address",
                    "name": "owner",
                    "type": "address"
                }
            ],
            "name": "balanceOf",
            "outputs": [
                {
                    "internalType": "uint256",
                    "name": "",
                    "type": "uint256"
                }
            ],
            "stateMutability": "view",
            "type": "function"
        },
        {
            "inputs": [
                {
                    "internalType": "uint256",
                    "name": "tokenId",
                    "type": "uint256"
                }
            ],
            "name": "getApproved",
            "outputs": [
                {
                    "internalType": "address",
                    "name": "",
                    "type": "address"
                }
            ],
            "stateMutability": "view",
            "type": "function"
        },
        {
            "inputs": [],
            "name": "getRandomOnchain",
            "outputs": [
                {
                    "internalType": "uint256",
                    "name": "",
                    "type": "uint256"
                }
            ],
            "stateMutability": "view",
            "type": "function"
        },
        {
            "inputs": [
                {
                    "internalType": "uint256",
                    "name": "",
                    "type": "uint256"
                }
            ],
            "name": "ids",
            "outputs": [
                {
                    "internalType": "uint256",
                    "name": "",
                    "type": "uint256"
                }
            ],
            "stateMutability": "view",
            "type": "function"
        },
        {
            "inputs": [
                {
                    "internalType": "address",
                    "name": "owner",
                    "type": "address"
                },
                {
                    "internalType": "address",
                    "name": "operator",
                    "type": "address"
                }
            ],
            "name": "isApprovedForAll",
            "outputs": [
                {
                    "internalType": "bool",
                    "name": "",
                    "type": "bool"
                }
            ],
            "stateMutability": "view",
            "type": "function"
        },
        {
            "inputs": [],
            "name": "mintCount",
            "outputs": [
                {
                    "internalType": "uint256",
                    "name": "",
                    "type": "uint256"
                }
            ],
            "stateMutability": "view",
            "type": "function"
        },
        {
            "inputs": [],
            "name": "mintRandomOnchain",
            "outputs": [],
            "stateMutability": "nonpayable",
            "type": "function"
        },
        {
            "inputs": [],
            "name": "mintRandomVRF",
            "outputs": [],
            "stateMutability": "nonpayable",
            "type": "function"
        },
        {
            "inputs": [],
            "name": "name",
            "outputs": [
                {
                    "internalType": "string",
                    "name": "",
                    "type": "string"
                }
            ],
            "stateMutability": "view",
            "type": "function"
        },
        {
            "inputs": [
                {
                    "internalType": "uint256",
                    "name": "tokenId",
                    "type": "uint256"
                }
            ],
            "name": "ownerOf",
            "outputs": [
                {
                    "internalType": "address",
                    "name": "owner",
                    "type": "address"
                }
            ],
            "stateMutability": "view",
            "type": "function"
        },
        {
            "inputs": [
                {
                    "internalType": "uint256",
                    "name": "requestId",
                    "type": "uint256"
                },
                {
                    "internalType": "uint256[]",
                    "name": "randomWords",
                    "type": "uint256[]"
                }
            ],
            "name": "rawFulfillRandomWords",
            "outputs": [],
            "stateMutability": "nonpayable",
            "type": "function"
        },
        {
            "inputs": [],
            "name": "requestId",
            "outputs": [
                {
                    "internalType": "uint256",
                    "name": "",
                    "type": "uint256"
                }
            ],
            "stateMutability": "view",
            "type": "function"
        },
        {
            "inputs": [
                {
                    "internalType": "uint256",
                    "name": "",
                    "type": "uint256"
                }
            ],
            "name": "requestToSender",
            "outputs": [
                {
                    "internalType": "address",
                    "name": "",
                    "type": "address"
                }
            ],
            "stateMutability": "view",
            "type": "function"
        },
        {
            "inputs": [
                {
                    "internalType": "address",
                    "name": "from",
                    "type": "address"
                },
                {
                    "internalType": "address",
                    "name": "to",
                    "type": "address"
                },
                {
                    "internalType": "uint256",
                    "name": "tokenId",
                    "type": "uint256"
                }
            ],
            "name": "safeTransferFrom",
            "outputs": [],
            "stateMutability": "nonpayable",
            "type": "function"
        },
        {
            "inputs": [
                {
                    "internalType": "address",
                    "name": "from",
                    "type": "address"
                },
                {
                    "internalType": "address",
                    "name": "to",
                    "type": "address"
                },
                {
                    "internalType": "uint256",
                    "name": "tokenId",
                    "type": "uint256"
                },
                {
                    "internalType": "bytes",
                    "name": "_data",
                    "type": "bytes"
                }
            ],
            "name": "safeTransferFrom",
            "outputs": [],
            "stateMutability": "nonpayable",
            "type": "function"
        },
        {
            "inputs": [
                {
                    "internalType": "address",
                    "name": "operator",
                    "type": "address"
                },
                {
                    "internalType": "bool",
                    "name": "approved",
                    "type": "bool"
                }
            ],
            "name": "setApprovalForAll",
            "outputs": [],
            "stateMutability": "nonpayable",
            "type": "function"
        },
        {
            "inputs": [
                {
                    "internalType": "bytes4",
                    "name": "interfaceId",
                    "type": "bytes4"
                }
            ],
            "name": "supportsInterface",
            "outputs": [
                {
                    "internalType": "bool",
                    "name": "",
                    "type": "bool"
                }
            ],
            "stateMutability": "pure",
            "type": "function"
        },
        {
            "inputs": [],
            "name": "symbol",
            "outputs": [
                {
                    "internalType": "string",
                    "name": "",
                    "type": "string"
                }
            ],
            "stateMutability": "view",
            "type": "function"
        },
        {
            "inputs": [
                {
                    "internalType": "uint256",
                    "name": "tokenId",
                    "type": "uint256"
                }
            ],
            "name": "tokenURI",
            "outputs": [
                {
                    "internalType": "string",
                    "name": "",
                    "type": "string"
                }
            ],
            "stateMutability": "view",
            "type": "function"
        },
        {
            "inputs": [],
            "name": "totalSupply",
            "outputs": [
                {
                    "internalType": "uint256",
                    "name": "",
                    "type": "uint256"
                }
            ],
            "stateMutability": "view",
            "type": "function"
        },
        {
            "inputs": [
                {
                    "internalType": "address",
                    "name": "from",
                    "type": "address"
                },
                {
                    "internalType": "address",
                    "name": "to",
                    "type": "address"
                },
                {
                    "internalType": "uint256",
                    "name": "tokenId",
                    "type": "uint256"
                }
            ],
            "name": "transferFrom",
            "outputs": [],
            "stateMutability": "nonpayable",
            "type": "function"
        }
    ],
    "bytecode": "60a06040526064600655606d80546001600160a01b031916738103b0a8a00be2ddc778e6e7eaa21791cd3646251790557f474e34a077df58807dbe9c96d3c009b23b3c6d0cce433e59bbf5b34f823bc56c606e55606f80546601000f424000036001600160501b03199091161790553480156200007a575f80fd5b50604051620018d7380380620018d78339810160408190526200009d9162000164565b606d54604080518082018252600a8152695754462052616e646f6d60b01b602080830191909152825180840190935260038352622baa2360e91b908301526001600160a01b0390921691905f620000f5838262000231565b50600162000104828262000231565b5050506001600160a01b03908116608052606d54606c80546001600160a01b03191691909216179055606f80546001600160401b039092166a010000000000000000000002600160501b600160901b0319909216919091179055620002fd565b5f6020828403121562000175575f80fd5b81516001600160401b03811681146200018c575f80fd5b9392505050565b634e487b7160e01b5f52604160045260245ffd5b600181811c90821680620001bc57607f821691505b602082108103620001db57634e487b7160e01b5f52602260045260245ffd5b50919050565b601f8211156200022c57805f5260205f20601f840160051c81016020851015620002085750805b601f840160051c820191505b8181101562000229575f815560010162000214565b50505b505050565b81516001600160401b038111156200024d576200024d62000193565b62000265816200025e8454620001a7565b84620001e1565b602080601f8311600181146200029b575f8415620002835750858301515b5f19600386901b1c1916600185901b178555620002f5565b5f85815260208120601f198616915b82811015620002cb57888601518255948401946001909101908401620002aa565b5085821015620002e957878501515f19600388901b60f8161c191681555b505060018460011b0185555b505050505050565b6080516115ba6200031d5f395f8181610517015261055901526115ba5ff3fe608060405234801561000f575f80fd5b506004361061013c575f3560e01c806370a08231116100b4578063b678647a11610079578063b678647a14610270578063b88d4fde14610298578063c87b56dd146102ab578063cbccade9146102be578063e985e9c5146102c6578063fac333ac14610301575f80fd5b806370a08231146102315780637462ae731461024457806395d89b411461024c5780639659867e14610254578063a22cb4651461025d575f80fd5b806318160ddd1161010557806318160ddd146101d45780631fe543e3146101dd57806323b872dd146101f057806342842e0e1461020357806352be732d146102165780636352211e1461021e575f80fd5b80626d6cae1461014057806301ffc9a71461015c57806306fdde031461017f578063081812fc14610194578063095ea7b3146101bf575b5f80fd5b61014960705481565b6040519081526020015b60405180910390f35b61016f61016a3660046110da565b610314565b6040519015158152602001610153565b610187610365565b6040516101539190611142565b6101a76101a2366004611154565b6103f0565b6040516001600160a01b039091168152602001610153565b6101d26101cd366004611181565b610469565b005b61014960065481565b6101d26101eb3660046111ee565b61050c565b6101d26101fe36600461129b565b610594565b6101d261021136600461129b565b610602565b6101d261061c565b6101a761022c366004611154565b6106f6565b61014961023f3660046112d4565b610755565b6101496107be565b610187610814565b610149606b5481565b6101d261026b3660046112ed565b610821565b6101a761027e366004611154565b60716020525f90815260409020546001600160a01b031681565b6101d26102a6366004611326565b61088c565b6101876102b9366004611154565b6108fc565b6101d26109b9565b61016f6102d43660046113df565b6001600160a01b039182165f90815260056020908152604080832093909416825291909152205460ff1690565b61014961030f366004611154565b6109d9565b5f6001600160e01b031982166380ac58cd60e01b148061034457506001600160e01b031982166301ffc9a760e01b145b8061035f57506001600160e01b03198216635b5e139f60e01b145b92915050565b5f805461037190611410565b80601f016020809104026020016040519081016040528092919081815260200182805461039d90611410565b80156103e85780601f106103bf576101008083540402835291602001916103e8565b820191905f5260205f20905b8154815290600101906020018083116103cb57829003601f168201915b505050505081565b5f818152600260205260408120546001600160a01b031661044e5760405162461bcd60e51b81526020600482015260136024820152721d1bdad95b88191bd95cdb89dd08195e1a5cdd606a1b60448201526064015b60405180910390fd5b505f908152600460205260409020546001600160a01b031690565b5f818152600260205260409020546001600160a01b0316338114806104b057506001600160a01b0381165f90815260056020908152604080832033845290915290205460ff165b6104fc5760405162461bcd60e51b815260206004820152601e60248201527f6e6f74206f776e6572206e6f7220617070726f76656420666f7220616c6c00006044820152606401610445565b6105078184846109ef565b505050565b336001600160a01b037f000000000000000000000000000000000000000000000000000000000000000016146105865760405163073e64fd60e21b81523360048201526001600160a01b037f0000000000000000000000000000000000000000000000000000000000000000166024820152604401610445565b6105908282610a4a565b5050565b5f61059e826106f6565b90506105ab813384610a94565b6105f05760405162461bcd60e51b81526020600482015260166024820152751b9bdd081bdddb995c881b9bdc88185c1c1c9bdd995960521b6044820152606401610445565b6105fc81858585610b04565b50505050565b61050783838360405180602001604052805f81525061088c565b606c54606e54606f546040516305d3b1d360e41b8152600481019290925267ffffffffffffffff600160501b820416602483015261ffff8116604483015263ffffffff6201000082048116606484015266010000000000009091041660848201526001600160a01b0390911690635d3b1d309060a4016020604051808303815f875af11580156106ae573d5f803e3d5ffd5b505050506040513d601f19601f820116820180604052508101906106d29190611448565b60708190555f90815260716020526040902080546001600160a01b03191633179055565b5f818152600260205260409020546001600160a01b0316806107505760405162461bcd60e51b81526020600482015260136024820152721d1bdad95b88191bd95cdb89dd08195e1a5cdd606a1b6044820152606401610445565b919050565b5f6001600160a01b0382166107a35760405162461bcd60e51b81526020600482015260146024820152736f776e6572203d207a65726f206164647265737360601b6044820152606401610445565b506001600160a01b03165f9081526003602052604090205490565b5f806107cb600143611473565b60408051914060208301526bffffffffffffffffffffffff193360601b169082015242605482015260740160408051601f19818403018152919052805160209091012092915050565b6001805461037190611410565b335f8181526005602090815260408083206001600160a01b03871680855290835292819020805460ff191686151590811790915590519081529192917f17307eab39ab6107e8899845ad3d59bd9653f200f220920489ca2b5937696c31910160405180910390a35050565b5f610896836106f6565b90506108a3813385610a94565b6108e85760405162461bcd60e51b81526020600482015260166024820152751b9bdd081bdddb995c881b9bdc88185c1c1c9bdd995960521b6044820152606401610445565b6108f58186868686610c68565b5050505050565b5f818152600260205260409020546060906001600160a01b03166109545760405162461bcd60e51b815260206004820152600f60248201526e151bdad95b88139bdd08115e1a5cdd608a1b6044820152606401610445565b5f61096960408051602081019091525f815290565b90505f8151116109875760405180602001604052805f8152506109b2565b8061099184610cc1565b6040516020016109a2929190611486565b6040516020818303038152906040525b9392505050565b5f6109ca6109c56107be565b610dbe565b90506109d63382610ef6565b50565b600781606481106109e8575f80fd5b0154905081565b5f8181526004602052604080822080546001600160a01b0319166001600160a01b0386811691821790925591518493918716917f8c5be1e5ebec7d5bd14f71427d1e84f3dd0314c0f7b2291e5b200ac8c7c3b92591a4505050565b5f8281526071602052604081205482516001600160a01b039091169190610a889084908390610a7b57610a7b6114b4565b6020026020010151610dbe565b90506105fc8282610ef6565b5f836001600160a01b0316836001600160a01b03161480610acd57505f828152600460205260409020546001600160a01b038481169116145b80610afc57506001600160a01b038085165f9081526005602090815260408083209387168352929052205460ff165b949350505050565b836001600160a01b0316836001600160a01b031614610b515760405162461bcd60e51b81526020600482015260096024820152683737ba1037bbb732b960b91b6044820152606401610445565b6001600160a01b038216610ba75760405162461bcd60e51b815260206004820152601c60248201527f7472616e7366657220746f20746865207a65726f2061646472657373000000006044820152606401610445565b610bb2845f836109ef565b6001600160a01b0383165f908152600360205260408120805460019290610bda908490611473565b90915550506001600160a01b0382165f908152600360205260408120805460019290610c079084906114c8565b90915550505f8181526002602052604080822080546001600160a01b0319166001600160a01b0386811691821790925591518493918716917fddf252ad1be2c89b69c2b068fc378daa952ba7f163c4a11628f55a4df523b3ef91a450505050565b610c7485858585610b04565b610c8084848484611023565b6108f55760405162461bcd60e51b81526020600482015260126024820152713737ba1022a9219b9918a932b1b2b4bb32b960711b6044820152606401610445565b6060815f03610ce75750506040805180820190915260018152600360fc1b602082015290565b815f5b8115610d105780610cfa816114db565b9150610d099050600a83611507565b9150610cea565b5f8167ffffffffffffffff811115610d2a57610d2a6111a9565b6040519080825280601f01601f191660200182016040528015610d54576020820181803683370190505b5090505b8415610afc57610d69600183611473565b9150610d76600a8661151a565b610d819060306114c8565b60f81b818381518110610d9657610d966114b4565b60200101906001600160f81b03191690815f1a905350610db7600a86611507565b9450610d58565b606b80545f9182919082610dd1836114db565b91905055600654610de29190611473565b90505f8111610e205760405162461bcd60e51b815260206004820152600a6024820152696d696e7420636c6f736560b01b6044820152606401610445565b5f610e2b828561151a565b905060078160648110610e4057610e406114b4565b01545f03610e4e5780610e64565b60078160648110610e6157610e616114b4565b01545b92506007610e73600184611473565b60648110610e8357610e836114b4565b015415610eae576007610e97600184611473565b60648110610ea757610ea76114b4565b0154610eb9565b610eb9600183611473565b60078260648110610ecc57610ecc6114b4565b01555f6007610edc600185611473565b60648110610eec57610eec6114b4565b0155509092915050565b6001600160a01b038216610f435760405162461bcd60e51b81526020600482015260146024820152736d696e7420746f207a65726f206164647265737360601b6044820152606401610445565b5f818152600260205260409020546001600160a01b031615610f9e5760405162461bcd60e51b81526020600482015260146024820152731d1bdad95b88185b1c9958591e481b5a5b9d195960621b6044820152606401610445565b6001600160a01b0382165f908152600360205260408120805460019290610fc69084906114c8565b90915550505f8181526002602052604080822080546001600160a01b0319166001600160a01b03861690811790915590518392907fddf252ad1be2c89b69c2b068fc378daa952ba7f163c4a11628f55a4df523b3ef908290a45050565b5f6001600160a01b0384163b156110ba57604051630a85bd0160e11b808252906001600160a01b0386169063150b7a02906110689033908a908990899060040161152d565b6020604051808303815f875af1158015611084573d5f803e3d5ffd5b505050506040513d601f19601f820116820180604052508101906110a89190611569565b6001600160e01b031916149050610afc565b506001949350505050565b6001600160e01b0319811681146109d6575f80fd5b5f602082840312156110ea575f80fd5b81356109b2816110c5565b5f5b8381101561110f5781810151838201526020016110f7565b50505f910152565b5f815180845261112e8160208601602086016110f5565b601f01601f19169290920160200192915050565b602081525f6109b26020830184611117565b5f60208284031215611164575f80fd5b5035919050565b80356001600160a01b0381168114610750575f80fd5b5f8060408385031215611192575f80fd5b61119b8361116b565b946020939093013593505050565b634e487b7160e01b5f52604160045260245ffd5b604051601f8201601f1916810167ffffffffffffffff811182821017156111e6576111e66111a9565b604052919050565b5f80604083850312156111ff575f80fd5b8235915060208084013567ffffffffffffffff8082111561121e575f80fd5b818601915086601f830112611231575f80fd5b813581811115611243576112436111a9565b8060051b91506112548483016111bd565b818152918301840191848101908984111561126d575f80fd5b938501935b8385101561128b57843582529385019390850190611272565b8096505050505050509250929050565b5f805f606084860312156112ad575f80fd5b6112b68461116b565b92506112c46020850161116b565b9150604084013590509250925092565b5f602082840312156112e4575f80fd5b6109b28261116b565b5f80604083850312156112fe575f80fd5b6113078361116b565b91506020830135801515811461131b575f80fd5b809150509250929050565b5f805f8060808587031215611339575f80fd5b6113428561116b565b9350602061135181870161116b565b935060408601359250606086013567ffffffffffffffff80821115611374575f80fd5b818801915088601f830112611387575f80fd5b813581811115611399576113996111a9565b6113ab601f8201601f191685016111bd565b915080825289848285010111156113c0575f80fd5b80848401858401375f8482840101525080935050505092959194509250565b5f80604083850312156113f0575f80fd5b6113f98361116b565b91506114076020840161116b565b90509250929050565b600181811c9082168061142457607f821691505b60208210810361144257634e487b7160e01b5f52602260045260245ffd5b50919050565b5f60208284031215611458575f80fd5b5051919050565b634e487b7160e01b5f52601160045260245ffd5b8181038181111561035f5761035f61145f565b5f83516114978184602088016110f5565b8351908301906114ab8183602088016110f5565b01949350505050565b634e487b7160e01b5f52603260045260245ffd5b8082018082111561035f5761035f61145f565b5f600182016114ec576114ec61145f565b5060010190565b634e487b7160e01b5f52601260045260245ffd5b5f82611515576115156114f3565b500490565b5f82611528576115286114f3565b500690565b6001600160a01b03858116825284166020820152604081018390526080606082018190525f9061155f90830184611117565b9695505050505050565b5f60208284031215611579575f80fd5b81516109b2816110c556fea264697066735822122068588d0c765fa6e3543b4814c41adbe51da0e16caa5e058c27f61914898aa64564736f6c63430008180033",
    "sourcePath": "d:/solidity/project/WTF-Solidity-Demo/contracts/39_Random/Random.sol",
    "compiler": {
        "name": "solc",
        "version": "0.8.24+commit.e11b9ed9"
    },
    "functionHashes": {
        "approve(address,uint256)": "095ea7b3",
        "balanceOf(address)": "70a08231",
        "getApproved(uint256)": "081812fc",
        "getRandomOnchain()": "7462ae73",
        "ids(uint256)": "fac333ac",
        "isApprovedForAll(address,address)": "e985e9c5",
        "mintCount()": "9659867e",
        "mintRandomOnchain()": "cbccade9",
        "mintRandomVRF()": "52be732d",
        "name()": "06fdde03",
        "ownerOf(uint256)": "6352211e",
        "rawFulfillRandomWords(uint256,uint256[])": "1fe543e3",
        "requestId()": "006d6cae",
        "requestToSender(uint256)": "b678647a",
        "safeTransferFrom(address,address,uint256)": "42842e0e",
        "safeTransferFrom(address,address,uint256,bytes)": "b88d4fde",
        "setApprovalForAll(address,bool)": "a22cb465",
        "supportsInterface(bytes4)": "01ffc9a7",
        "symbol()": "95d89b41",
        "tokenURI(uint256)": "c87b56dd",
        "totalSupply()": "18160ddd",
        "transferFrom(address,address,uint256)": "23b872dd"
    },
    "gasEstimates": {
        "creation": {
            "codeDepositCost": "1112400",
            "executionCost": "infinite",
            "totalCost": "infinite"
        },
        "external": {
            "approve(address,uint256)": "31210",
            "balanceOf(address)": "2597",
            "getApproved(uint256)": "4778",
            "getRandomOnchain()": "536",
            "ids(uint256)": "2537",
            "isApprovedForAll(address,address)": "infinite",
            "mintCount()": "2372",
            "mintRandomOnchain()": "infinite",
            "mintRandomVRF()": "infinite",
            "name()": "infinite",
            "ownerOf(uint256)": "2668",
            "rawFulfillRandomWords(uint256,uint256[])": "infinite",
            "requestId()": "2307",
            "requestToSender(uint256)": "2496",
            "safeTransferFrom(address,address,uint256)": "infinite",
            "safeTransferFrom(address,address,uint256,bytes)": "infinite",
            "setApprovalForAll(address,bool)": "26693",
            "supportsInterface(bytes4)": "564",
            "symbol()": "infinite",
            "tokenURI(uint256)": "infinite",
            "totalSupply()": "2306",
            "transferFrom(address,address,uint256)": "infinite"
        },
        "internal": {
            "fulfillRandomWords(uint256,uint256[] memory)": "infinite",
            "pickRandomUniqueId(uint256)": "infinite"
        }
    }
}