{
    "contractName": "RandomNumberConsumer",
    "abi": [
        {
            "inputs": [
                {
                    "internalType": "uint64",
                    "name": "s_subId",
                    "type": "uint64"
                }
            ],
            "stateMutability": "nonpayable",
            "type": "constructor"
        },
        {
            "inputs": [
                {
                    "internalType": "address",
                    "name": "have",
                    "type": "address"
                },
                {
                    "internalType": "address",
                    "name": "want",
                    "type": "address"
                }
            ],
            "name": "OnlyCoordinatorCanFulfill",
            "type": "error"
        },
        {
            "inputs": [
                {
                    "internalType": "uint256",
                    "name": "",
                    "type": "uint256"
                }
            ],
            "name": "randomWords",
            "outputs": [
                {
                    "internalType": "uint256",
                    "name": "",
                    "type": "uint256"
                }
            ],
            "stateMutability": "view",
            "type": "function"
        },
        {
            "inputs": [
                {
                    "internalType": "uint256",
                    "name": "requestId",
                    "type": "uint256"
                },
                {
                    "internalType": "uint256[]",
                    "name": "randomWords",
                    "type": "uint256[]"
                }
            ],
            "name": "rawFulfillRandomWords",
            "outputs": [],
            "stateMutability": "nonpayable",
            "type": "function"
        },
        {
            "inputs": [],
            "name": "requestId",
            "outputs": [
                {
                    "internalType": "uint256",
                    "name": "",
                    "type": "uint256"
                }
            ],
            "stateMutability": "view",
            "type": "function"
        },
        {
            "inputs": [],
            "name": "requestRandomWords",
            "outputs": [],
            "stateMutability": "nonpayable",
            "type": "function"
        }
    ],
    "bytecode": "60a0604052600380546001600160a01b031916738103b0a8a00be2ddc778e6e7eaa21791cd3646251790557f474e34a077df58807dbe9c96d3c009b23b3c6d0cce433e59bbf5b34f823bc56c60045560058054660300030d4000036001600160501b0319909116179055348015610074575f80fd5b506040516104cd3803806104cd833981016040819052610093916100d2565b6003546001600160a01b031660808190525f80546001600160401b03909316600160a01b026001600160e01b03199093169091179190911790556100ff565b5f602082840312156100e2575f80fd5b81516001600160401b03811681146100f8575f80fd5b9392505050565b6080516103b161011c5f395f818160a3015260e501526103b15ff3fe608060405234801561000f575f80fd5b5060043610610049575f3560e01c80626d6cae1461004d5780631fe543e314610068578063beff730f1461007d578063e0c8628914610090575b5f80fd5b61005660015481565b60405190815260200160405180910390f35b61007b610076366004610288565b610098565b005b61005661008b36600461034d565b610124565b61007b610143565b336001600160a01b037f000000000000000000000000000000000000000000000000000000000000000016146101165760405163073e64fd60e21b81523360048201526001600160a01b037f000000000000000000000000000000000000000000000000000000000000000016602482015260440160405180910390fd5b61012082826101fd565b5050565b60028181548110610133575f80fd5b5f91825260209091200154905081565b5f54600480546005546040516305d3b1d360e41b81529283019190915267ffffffffffffffff600160a01b840416602483015261ffff8116604483015263ffffffff6201000082048116606484015266010000000000009091041660848201526001600160a01b0390911690635d3b1d309060a4016020604051808303815f875af11580156101d4573d5f803e3d5ffd5b505050506040513d601f19601f820116820180604052508101906101f89190610364565b600155565b8051610210906002906020840190610217565b5050600155565b828054828255905f5260205f20908101928215610250579160200282015b82811115610250578251825591602001919060010190610235565b5061025c929150610260565b5090565b5b8082111561025c575f8155600101610261565b634e487b7160e01b5f52604160045260245ffd5b5f8060408385031215610299575f80fd5b8235915060208084013567ffffffffffffffff808211156102b8575f80fd5b818601915086601f8301126102cb575f80fd5b8135818111156102dd576102dd610274565b8060051b604051601f19603f8301168101818110858211171561030257610302610274565b60405291825284820192508381018501918983111561031f575f80fd5b938501935b8285101561033d57843584529385019392850192610324565b8096505050505050509250929050565b5f6020828403121561035d575f80fd5b5035919050565b5f60208284031215610374575f80fd5b505191905056fea26469706673582212204b1dd4e52f58405a0d5ca1c9596e038a6964f231fedc862baeb47d9093f4e59c64736f6c63430008180033",
    "sourcePath": "d:/solidity/project/WTF-Solidity-Demo/contracts/39_Random/RandomNumberConsumer.sol",
    "compiler": {
        "name": "solc",
        "version": "0.8.24+commit.e11b9ed9"
    },
    "functionHashes": {
        "randomWords(uint256)": "beff730f",
        "rawFulfillRandomWords(uint256,uint256[])": "1fe543e3",
        "requestId()": "006d6cae",
        "requestRandomWords()": "e0c86289"
    },
    "gasEstimates": {
        "creation": {
            "codeDepositCost": "189000",
            "executionCost": "infinite",
            "totalCost": "infinite"
        },
        "external": {
            "randomWords(uint256)": "4582",
            "rawFulfillRandomWords(uint256,uint256[])": "infinite",
            "requestId()": "2260",
            "requestRandomWords()": "infinite"
        },
        "internal": {
            "fulfillRandomWords(uint256,uint256[] memory)": "infinite"
        }
    }
}