{
    "contractName": "AaveV3Flashloan",
    "abi": [
        {
            "inputs": [],
            "stateMutability": "nonpayable",
            "type": "constructor"
        },
        {
            "inputs": [],
            "name": "aave",
            "outputs": [
                {
                    "internalType": "contract ILendingPool",
                    "name": "",
                    "type": "address"
                }
            ],
            "stateMutability": "view",
            "type": "function"
        },
        {
            "inputs": [
                {
                    "internalType": "uint256",
                    "name": "amount",
                    "type": "uint256"
                },
                {
                    "internalType": "address",
                    "name": "initiator",
                    "type": "address"
                },
                {
                    "internalType": "bytes",
                    "name": "",
                    "type": "bytes"
                }
            ],
            "name": "executeOperation",
            "outputs": [
                {
                    "internalType": "bool",
                    "name": "",
                    "type": "bool"
                }
            ],
            "stateMutability": "nonpayable",
            "type": "function"
        },
        {
            "inputs": [
                {
                    "internalType": "uint256",
                    "name": "wethAmount",
                    "type": "uint256"
                }
            ],
            "name": "flashloan",
            "outputs": [],
            "stateMutability": "nonpayable",
            "type": "function"
        }
    ],
    "bytecode": "608060405234801561000f575f80fd5b505f80546001600160a01b0319167387870bca3f3fd6335c3f4ce8392d69350b4fa4e2179055610412806100425f395ff3fe608060405234801561000f575f80fd5b506004361061003f575f3560e01c806365b6c4f014610043578063819faf7b14610058578063cb40f43514610087575b5f80fd5b6100566100513660046102af565b6100aa565b005b5f5461006a906001600160a01b031681565b6040516001600160a01b0390911681526020015b60405180910390f35b61009a6100953660046102c6565b61013a565b604051901515815260200161007e565b5f80546040516310ac2ddf60e21b815230600482015273c02aaa39b223fe8d0a0e5c4f27ead9083c756cc260248201526044810184905260a0606482015260a4810183905260848101929092526001600160a01b0316906342b0b77c9060c4015f604051808303815f87803b158015610121575f80fd5b505af1158015610133573d5f803e3d5ffd5b5050505050565b5f337387870bca3f3fd6335c3f4ce8392d69350b4fa4e2146101945760405162461bcd60e51b815260206004820152600e60248201526d1b9bdd08185d5d1a1bdc9a5e995960921b60448201526064015b60405180910390fd5b6001600160a01b03841630146101e05760405162461bcd60e51b815260206004820152601160248201527034b73b30b634b21034b734ba34b0ba37b960791b604482015260640161018b565b5f6127106101ef876005610367565b6101f99190610384565b6102049060016103a3565b90505f61021182886103a3565b60405163095ea7b360e01b81527387870bca3f3fd6335c3f4ce8392d69350b4fa4e260048201526024810182905290915073c02aaa39b223fe8d0a0e5c4f27ead9083c756cc29063095ea7b3906044016020604051808303815f875af115801561027d573d5f803e3d5ffd5b505050506040513d601f19601f820116820180604052508101906102a191906103b6565b506001979650505050505050565b5f602082840312156102bf575f80fd5b5035919050565b5f805f80606085870312156102d9575f80fd5b8435935060208501356001600160a01b03811681146102f6575f80fd5b9250604085013567ffffffffffffffff80821115610312575f80fd5b818701915087601f830112610325575f80fd5b813581811115610333575f80fd5b886020828501011115610344575f80fd5b95989497505060200194505050565b634e487b7160e01b5f52601160045260245ffd5b808202811582820484141761037e5761037e610353565b92915050565b5f8261039e57634e487b7160e01b5f52601260045260245ffd5b500490565b8082018082111561037e5761037e610353565b5f602082840312156103c6575f80fd5b815180151581146103d5575f80fd5b939250505056fea26469706673582212208b783638d37f6a2d41d60054d434198a1f2fb9bf0d21698d3b092cf7007185a764736f6c63430008180033",
    "sourcePath": "d:/solidity/project/WTF-Solidity-Demo/contracts/57_Flashloan/src/AaveV3Flashloan.sol",
    "compiler": {
        "name": "solc",
        "version": "0.8.24+commit.e11b9ed9"
    },
    "functionHashes": {
        "aave()": "819faf7b",
        "executeOperation(uint256,address,bytes)": "cb40f435",
        "flashloan(uint256)": "65b6c4f0"
    },
    "gasEstimates": {
        "creation": {
            "codeDepositCost": "208400",
            "executionCost": "24484",
            "totalCost": "232884"
        },
        "external": {
            "aave()": "2324",
            "executeOperation(uint256,address,bytes)": "infinite",
            "flashloan(uint256)": "infinite"
        }
    }
}