{
    "contractName": "TimeManipulation",
    "abi": [
        {
            "inputs": [],
            "stateMutability": "nonpayable",
            "type": "constructor"
        },
        {
            "inputs": [
                {
                    "internalType": "address",
                    "name": "sender",
                    "type": "address"
                },
                {
                    "internalType": "uint256",
                    "name": "tokenId",
                    "type": "uint256"
                },
                {
                    "internalType": "address",
                    "name": "owner",
                    "type": "address"
                }
            ],
            "name": "ERC721IncorrectOwner",
            "type": "error"
        },
        {
            "inputs": [
                {
                    "internalType": "address",
                    "name": "operator",
                    "type": "address"
                },
                {
                    "internalType": "uint256",
                    "name": "tokenId",
                    "type": "uint256"
                }
            ],
            "name": "ERC721InsufficientApproval",
            "type": "error"
        },
        {
            "inputs": [
                {
                    "internalType": "address",
                    "name": "approver",
                    "type": "address"
                }
            ],
            "name": "ERC721InvalidApprover",
            "type": "error"
        },
        {
            "inputs": [
                {
                    "internalType": "address",
                    "name": "operator",
                    "type": "address"
                }
            ],
            "name": "ERC721InvalidOperator",
            "type": "error"
        },
        {
            "inputs": [
                {
                    "internalType": "address",
                    "name": "owner",
                    "type": "address"
                }
            ],
            "name": "ERC721InvalidOwner",
            "type": "error"
        },
        {
            "inputs": [
                {
                    "internalType": "address",
                    "name": "receiver",
                    "type": "address"
                }
            ],
            "name": "ERC721InvalidReceiver",
            "type": "error"
        },
        {
            "inputs": [
                {
                    "internalType": "address",
                    "name": "sender",
                    "type": "address"
                }
            ],
            "name": "ERC721InvalidSender",
            "type": "error"
        },
        {
            "inputs": [
                {
                    "internalType": "uint256",
                    "name": "tokenId",
                    "type": "uint256"
                }
            ],
            "name": "ERC721NonexistentToken",
            "type": "error"
        },
        {
            "anonymous": false,
            "inputs": [
                {
                    "indexed": true,
                    "internalType": "address",
                    "name": "owner",
                    "type": "address"
                },
                {
                    "indexed": true,
                    "internalType": "address",
                    "name": "approved",
                    "type": "address"
                },
                {
                    "indexed": true,
                    "internalType": "uint256",
                    "name": "tokenId",
                    "type": "uint256"
                }
            ],
            "name": "Approval",
            "type": "event"
        },
        {
            "anonymous": false,
            "inputs": [
                {
                    "indexed": true,
                    "internalType": "address",
                    "name": "owner",
                    "type": "address"
                },
                {
                    "indexed": true,
                    "internalType": "address",
                    "name": "operator",
                    "type": "address"
                },
                {
                    "indexed": false,
                    "internalType": "bool",
                    "name": "approved",
                    "type": "bool"
                }
            ],
            "name": "ApprovalForAll",
            "type": "event"
        },
        {
            "anonymous": false,
            "inputs": [
                {
                    "indexed": true,
                    "internalType": "address",
                    "name": "from",
                    "type": "address"
                },
                {
                    "indexed": true,
                    "internalType": "address",
                    "name": "to",
                    "type": "address"
                },
                {
                    "indexed": true,
                    "internalType": "uint256",
                    "name": "tokenId",
                    "type": "uint256"
                }
            ],
            "name": "Transfer",
            "type": "event"
        },
        {
            "inputs": [
                {
                    "internalType": "address",
                    "name": "to",
                    "type": "address"
                },
                {
                    "internalType": "uint256",
                    "name": "tokenId",
                    "type": "uint256"
                }
            ],
            "name": "approve",
            "outputs": [],
            "stateMutability": "nonpayable",
            "type": "function"
        },
        {
            "inputs": [
                {
                    "internalType": "address",
                    "name": "owner",
                    "type": "address"
                }
            ],
            "name": "balanceOf",
            "outputs": [
                {
                    "internalType": "uint256",
                    "name": "",
                    "type": "uint256"
                }
            ],
            "stateMutability": "view",
            "type": "function"
        },
        {
            "inputs": [
                {
                    "internalType": "uint256",
                    "name": "tokenId",
                    "type": "uint256"
                }
            ],
            "name": "getApproved",
            "outputs": [
                {
                    "internalType": "address",
                    "name": "",
                    "type": "address"
                }
            ],
            "stateMutability": "view",
            "type": "function"
        },
        {
            "inputs": [
                {
                    "internalType": "address",
                    "name": "owner",
                    "type": "address"
                },
                {
                    "internalType": "address",
                    "name": "operator",
                    "type": "address"
                }
            ],
            "name": "isApprovedForAll",
            "outputs": [
                {
                    "internalType": "bool",
                    "name": "",
                    "type": "bool"
                }
            ],
            "stateMutability": "view",
            "type": "function"
        },
        {
            "inputs": [],
            "name": "luckyMint",
            "outputs": [
                {
                    "internalType": "bool",
                    "name": "success",
                    "type": "bool"
                }
            ],
            "stateMutability": "nonpayable",
            "type": "function"
        },
        {
            "inputs": [],
            "name": "name",
            "outputs": [
                {
                    "internalType": "string",
                    "name": "",
                    "type": "string"
                }
            ],
            "stateMutability": "view",
            "type": "function"
        },
        {
            "inputs": [
                {
                    "internalType": "uint256",
                    "name": "tokenId",
                    "type": "uint256"
                }
            ],
            "name": "ownerOf",
            "outputs": [
                {
                    "internalType": "address",
                    "name": "",
                    "type": "address"
                }
            ],
            "stateMutability": "view",
            "type": "function"
        },
        {
            "inputs": [
                {
                    "internalType": "address",
                    "name": "from",
                    "type": "address"
                },
                {
                    "internalType": "address",
                    "name": "to",
                    "type": "address"
                },
                {
                    "internalType": "uint256",
                    "name": "tokenId",
                    "type": "uint256"
                }
            ],
            "name": "safeTransferFrom",
            "outputs": [],
            "stateMutability": "nonpayable",
            "type": "function"
        },
        {
            "inputs": [
                {
                    "internalType": "address",
                    "name": "from",
                    "type": "address"
                },
                {
                    "internalType": "address",
                    "name": "to",
                    "type": "address"
                },
                {
                    "internalType": "uint256",
                    "name": "tokenId",
                    "type": "uint256"
                },
                {
                    "internalType": "bytes",
                    "name": "data",
                    "type": "bytes"
                }
            ],
            "name": "safeTransferFrom",
            "outputs": [],
            "stateMutability": "nonpayable",
            "type": "function"
        },
        {
            "inputs": [
                {
                    "internalType": "address",
                    "name": "operator",
                    "type": "address"
                },
                {
                    "internalType": "bool",
                    "name": "approved",
                    "type": "bool"
                }
            ],
            "name": "setApprovalForAll",
            "outputs": [],
            "stateMutability": "nonpayable",
            "type": "function"
        },
        {
            "inputs": [
                {
                    "internalType": "bytes4",
                    "name": "interfaceId",
                    "type": "bytes4"
                }
            ],
            "name": "supportsInterface",
            "outputs": [
                {
                    "internalType": "bool",
                    "name": "",
                    "type": "bool"
                }
            ],
            "stateMutability": "view",
            "type": "function"
        },
        {
            "inputs": [],
            "name": "symbol",
            "outputs": [
                {
                    "internalType": "string",
                    "name": "",
                    "type": "string"
                }
            ],
            "stateMutability": "view",
            "type": "function"
        },
        {
            "inputs": [
                {
                    "internalType": "uint256",
                    "name": "tokenId",
                    "type": "uint256"
                }
            ],
            "name": "tokenURI",
            "outputs": [
                {
                    "internalType": "string",
                    "name": "",
                    "type": "string"
                }
            ],
            "stateMutability": "view",
            "type": "function"
        },
        {
            "inputs": [
                {
                    "internalType": "address",
                    "name": "from",
                    "type": "address"
                },
                {
                    "internalType": "address",
                    "name": "to",
                    "type": "address"
                },
                {
                    "internalType": "uint256",
                    "name": "tokenId",
                    "type": "uint256"
                }
            ],
            "name": "transferFrom",
            "outputs": [],
            "stateMutability": "nonpayable",
            "type": "function"
        }
    ],
    "bytecode": "608060405234801562000010575f80fd5b5060408051602080820183525f80835283519182019093528281529091620000398382620000ef565b506001620000488282620000ef565b505050620001bb565b634e487b7160e01b5f52604160045260245ffd5b600181811c908216806200007a57607f821691505b6020821081036200009957634e487b7160e01b5f52602260045260245ffd5b50919050565b601f821115620000ea57805f5260205f20601f840160051c81016020851015620000c65750805b601f840160051c820191505b81811015620000e7575f8155600101620000d2565b50505b505050565b81516001600160401b038111156200010b576200010b62000051565b62000123816200011c845462000065565b846200009f565b602080601f83116001811462000159575f8415620001415750858301515b5f19600386901b1c1916600185901b178555620001b3565b5f85815260208120601f198616915b82811015620001895788860151825594840194600190910190840162000168565b5085821015620001a757878501515f19600388901b60f8161c191681555b505060018460011b0185555b505050505050565b610f9180620001c95f395ff3fe608060405234801561000f575f80fd5b50600436106100e5575f3560e01c806370a0823111610088578063b88d4fde11610063578063b88d4fde146101db578063c87b56dd146101ee578063e985e9c514610201578063ffd5a7be14610214575f80fd5b806370a082311461019f57806395d89b41146101c0578063a22cb465146101c8575f80fd5b8063095ea7b3116100c3578063095ea7b31461015157806323b872dd1461016657806342842e0e146101795780636352211e1461018c575f80fd5b806301ffc9a7146100e957806306fdde0314610111578063081812fc14610126575b5f80fd5b6100fc6100f7366004610be2565b61021c565b60405190151581526020015b60405180910390f35b61011961026d565b6040516101089190610c4a565b610139610134366004610c5c565b6102fc565b6040516001600160a01b039091168152602001610108565b61016461015f366004610c8e565b610323565b005b610164610174366004610cb6565b610332565b610164610187366004610cb6565b6103c0565b61013961019a366004610c5c565b6103df565b6101b26101ad366004610cef565b6103e9565b604051908152602001610108565b61011961042e565b6101646101d6366004610d08565b61043d565b6101646101e9366004610d55565b610448565b6101196101fc366004610c5c565b61045f565b6100fc61020f366004610e2a565b6104d0565b6100fc6104fd565b5f6001600160e01b031982166380ac58cd60e01b148061024c57506001600160e01b03198216635b5e139f60e01b145b8061026757506301ffc9a760e01b6001600160e01b03198316145b92915050565b60605f805461027b90610e5b565b80601f01602080910402602001604051908101604052809291908181526020018280546102a790610e5b565b80156102f25780601f106102c9576101008083540402835291602001916102f2565b820191905f5260205f20905b8154815290600101906020018083116102d557829003601f168201915b5050505050905090565b5f6103068261053b565b505f828152600460205260409020546001600160a01b0316610267565b61032e828233610573565b5050565b6001600160a01b03821661036057604051633250574960e11b81525f60048201526024015b60405180910390fd5b5f61036c838333610580565b9050836001600160a01b0316816001600160a01b0316146103ba576040516364283d7b60e01b81526001600160a01b0380861660048301526024820184905282166044820152606401610357565b50505050565b6103da83838360405180602001604052805f815250610448565b505050565b5f6102678261053b565b5f6001600160a01b038216610413576040516322718ad960e21b81525f6004820152602401610357565b506001600160a01b03165f9081526003602052604090205490565b60606001805461027b90610e5b565b61032e338383610672565b610453848484610332565b6103ba84848484610710565b606061046a8261053b565b505f61048060408051602081019091525f815290565b90505f81511161049e5760405180602001604052805f8152506104c9565b806104a884610836565b6040516020016104b9929190610e93565b6040516020818303038152906040525b9392505050565b6001600160a01b039182165f90815260056020908152604080832093909416825291909152205460ff1690565b5f61050960aa42610ec1565b5f036105365761051b336006546108c6565b60068054905f61052a83610ee0565b91905055506001905090565b505f90565b5f818152600260205260408120546001600160a01b03168061026757604051637e27328960e01b815260048101849052602401610357565b6103da8383836001610927565b5f828152600260205260408120546001600160a01b03908116908316156105ac576105ac818486610a2b565b6001600160a01b038116156105e6576105c75f855f80610927565b6001600160a01b0381165f90815260036020526040902080545f190190555b6001600160a01b03851615610614576001600160a01b0385165f908152600360205260409020805460010190555b5f8481526002602052604080822080546001600160a01b0319166001600160a01b0389811691821790925591518793918516917fddf252ad1be2c89b69c2b068fc378daa952ba7f163c4a11628f55a4df523b3ef91a4949350505050565b6001600160a01b0382166106a457604051630b61174360e31b81526001600160a01b0383166004820152602401610357565b6001600160a01b038381165f81815260056020908152604080832094871680845294825291829020805460ff191686151590811790915591519182527f17307eab39ab6107e8899845ad3d59bd9653f200f220920489ca2b5937696c31910160405180910390a3505050565b6001600160a01b0383163b156103ba57604051630a85bd0160e11b81526001600160a01b0384169063150b7a0290610752903390889087908790600401610f04565b6020604051808303815f875af192505050801561078c575060408051601f3d908101601f1916820190925261078991810190610f40565b60015b6107f3573d8080156107b9576040519150601f19603f3d011682016040523d82523d5f602084013e6107be565b606091505b5080515f036107eb57604051633250574960e11b81526001600160a01b0385166004820152602401610357565b805181602001fd5b6001600160e01b03198116630a85bd0160e11b1461082f57604051633250574960e11b81526001600160a01b0385166004820152602401610357565b5050505050565b60605f61084283610a8f565b60010190505f8167ffffffffffffffff81111561086157610861610d41565b6040519080825280601f01601f19166020018201604052801561088b576020820181803683370190505b5090508181016020015b5f19016f181899199a1a9b1b9c1cb0b131b232b360811b600a86061a8153600a850494508461089557509392505050565b6001600160a01b0382166108ef57604051633250574960e11b81525f6004820152602401610357565b5f6108fb83835f610580565b90506001600160a01b038116156103da576040516339e3563760e11b81525f6004820152602401610357565b808061093b57506001600160a01b03821615155b156109fc575f61094a8461053b565b90506001600160a01b038316158015906109765750826001600160a01b0316816001600160a01b031614155b8015610989575061098781846104d0565b155b156109b25760405163a9fbf51f60e01b81526001600160a01b0384166004820152602401610357565b81156109fa5783856001600160a01b0316826001600160a01b03167f8c5be1e5ebec7d5bd14f71427d1e84f3dd0314c0f7b2291e5b200ac8c7c3b92560405160405180910390a45b505b50505f90815260046020526040902080546001600160a01b0319166001600160a01b0392909216919091179055565b610a36838383610b66565b6103da576001600160a01b038316610a6457604051637e27328960e01b815260048101829052602401610357565b60405163177e802f60e01b81526001600160a01b038316600482015260248101829052604401610357565b5f8072184f03e93ff9f4daa797ed6e38ed64bf6a1f0160401b8310610acd5772184f03e93ff9f4daa797ed6e38ed64bf6a1f0160401b830492506040015b6d04ee2d6d415b85acef81000000008310610af9576d04ee2d6d415b85acef8100000000830492506020015b662386f26fc100008310610b1757662386f26fc10000830492506010015b6305f5e1008310610b2f576305f5e100830492506008015b6127108310610b4357612710830492506004015b60648310610b55576064830492506002015b600a83106102675760010192915050565b5f6001600160a01b03831615801590610bc25750826001600160a01b0316846001600160a01b03161480610b9f5750610b9f84846104d0565b80610bc257505f828152600460205260409020546001600160a01b038481169116145b949350505050565b6001600160e01b031981168114610bdf575f80fd5b50565b5f60208284031215610bf2575f80fd5b81356104c981610bca565b5f5b83811015610c17578181015183820152602001610bff565b50505f910152565b5f8151808452610c36816020860160208601610bfd565b601f01601f19169290920160200192915050565b602081525f6104c96020830184610c1f565b5f60208284031215610c6c575f80fd5b5035919050565b80356001600160a01b0381168114610c89575f80fd5b919050565b5f8060408385031215610c9f575f80fd5b610ca883610c73565b946020939093013593505050565b5f805f60608486031215610cc8575f80fd5b610cd184610c73565b9250610cdf60208501610c73565b9150604084013590509250925092565b5f60208284031215610cff575f80fd5b6104c982610c73565b5f8060408385031215610d19575f80fd5b610d2283610c73565b915060208301358015158114610d36575f80fd5b809150509250929050565b634e487b7160e01b5f52604160045260245ffd5b5f805f8060808587031215610d68575f80fd5b610d7185610c73565b9350610d7f60208601610c73565b925060408501359150606085013567ffffffffffffffff80821115610da2575f80fd5b818701915087601f830112610db5575f80fd5b813581811115610dc757610dc7610d41565b604051601f8201601f19908116603f01168101908382118183101715610def57610def610d41565b816040528281528a6020848701011115610e07575f80fd5b826020860160208301375f60208483010152809550505050505092959194509250565b5f8060408385031215610e3b575f80fd5b610e4483610c73565b9150610e5260208401610c73565b90509250929050565b600181811c90821680610e6f57607f821691505b602082108103610e8d57634e487b7160e01b5f52602260045260245ffd5b50919050565b5f8351610ea4818460208801610bfd565b835190830190610eb8818360208801610bfd565b01949350505050565b5f82610edb57634e487b7160e01b5f52601260045260245ffd5b500690565b5f60018201610efd57634e487b7160e01b5f52601160045260245ffd5b5060010190565b6001600160a01b03858116825284166020820152604081018390526080606082018190525f90610f3690830184610c1f565b9695505050505050565b5f60208284031215610f50575f80fd5b81516104c981610bca56fea26469706673582212202f6610baf162ca01ab813a7b20033009d01f317d9a0de95ae224b5b4c739ac7c64736f6c63430008180033",
    "sourcePath": "d:/solidity/project/WTF-Solidity-Demo/contracts/S14_TimeManipulation/src/TimeManipulation.sol",
    "compiler": {
        "name": "solc",
        "version": "0.8.24+commit.e11b9ed9"
    },
    "functionHashes": {
        "approve(address,uint256)": "095ea7b3",
        "balanceOf(address)": "70a08231",
        "getApproved(uint256)": "081812fc",
        "isApprovedForAll(address,address)": "e985e9c5",
        "luckyMint()": "ffd5a7be",
        "name()": "06fdde03",
        "ownerOf(uint256)": "6352211e",
        "safeTransferFrom(address,address,uint256)": "42842e0e",
        "safeTransferFrom(address,address,uint256,bytes)": "b88d4fde",
        "setApprovalForAll(address,bool)": "a22cb465",
        "supportsInterface(bytes4)": "01ffc9a7",
        "symbol()": "95d89b41",
        "tokenURI(uint256)": "c87b56dd",
        "transferFrom(address,address,uint256)": "23b872dd"
    },
    "gasEstimates": {
        "creation": {
            "codeDepositCost": "797000",
            "executionCost": "infinite",
            "totalCost": "infinite"
        },
        "external": {
            "approve(address,uint256)": "31464",
            "balanceOf(address)": "2608",
            "getApproved(uint256)": "infinite",
            "isApprovedForAll(address,address)": "infinite",
            "luckyMint()": "128492",
            "name()": "infinite",
            "ownerOf(uint256)": "infinite",
            "safeTransferFrom(address,address,uint256)": "infinite",
            "safeTransferFrom(address,address,uint256,bytes)": "infinite",
            "setApprovalForAll(address,bool)": "26723",
            "supportsInterface(bytes4)": "531",
            "symbol()": "infinite",
            "tokenURI(uint256)": "infinite",
            "transferFrom(address,address,uint256)": "infinite"
        }
    }
}