{
    "contractName": "Import",
    "abi": [
        {
            "inputs": [],
            "name": "test",
            "outputs": [],
            "stateMutability": "nonpayable",
            "type": "function"
        }
    ],
    "bytecode": "60806040526040516100109061005a565b604051809103905ff080158015610029573d5f803e3d5ffd5b505f80546001600160a01b0319166001600160a01b0392909216919091179055348015610054575f80fd5b50610066565b60e78061012f83390190565b60bd806100725f395ff3fe6080604052348015600e575f80fd5b50600436106026575f3560e01c8063f8a8fd6d14602a575b5f80fd5b60306032565b005b5f805460408051631b8750a160e11b815290516001600160a01b039092169263370ea1429260048084019382900301818387803b1580156070575f80fd5b505af11580156081573d5f803e3d5ffd5b5050505056fea2646970667358221220a1e926c77ea4a9fb2cc1052ff5dacbdb85ea187db1e95b3dba841b111f5d62e964736f6c63430008180033608060405234801561000f575f80fd5b5060cb8061001c5f395ff3fe6080604052348015600e575f80fd5b5060043610603a575f3560e01c80630ca21e9c14603e578063370ea14214603e578063a4ece52c14603e575b5f80fd5b60446046565b005b7fcf34ef537ac33ee1ac626ca1587a0a7e8e51561e5514f8cb36afa1c5102b3bab604051608b906020808252600490820152635965796560e01b604082015260600190565b60405180910390a156fea2646970667358221220bed7fd4e6ad46ed036b8cac7d6f5ac4fdd44d1d0f03d441157599694a23a301464736f6c63430008180033",
    "sourcePath": "d:/solidity/project/WTF-Solidity-Demo/contracts/18_Import/Import.sol",
    "compiler": {
        "name": "solc",
        "version": "0.8.24+commit.e11b9ed9"
    },
    "functionHashes": {
        "test()": "f8a8fd6d"
    },
    "gasEstimates": {
        "creation": {
            "codeDepositCost": "37800",
            "executionCost": "infinite",
            "totalCost": "infinite"
        },
        "external": {
            "test()": "infinite"
        }
    }
}